{
  "contractName": "Sample",
  "abi": [
    {
      "constant": false,
      "inputs": [
        {
          "name": "value",
          "type": "uint256"
        }
      ],
      "name": "getValue",
      "outputs": [
        {
          "name": "",
          "type": "uint256"
        }
      ],
      "payable": false,
      "stateMutability": "nonpayable",
      "type": "function"
    },
    {
      "constant": false,
      "inputs": [
        {
          "name": "value",
          "type": "uint256"
        }
      ],
      "name": "setValue",
      "outputs": [
        {
          "name": "",
          "type": "uint256"
        }
      ],
      "payable": false,
      "stateMutability": "nonpayable",
      "type": "function"
    },
    {
      "constant": true,
      "inputs": [],
      "name": "number",
      "outputs": [
        {
          "name": "",
          "type": "uint256"
        }
      ],
      "payable": false,
      "stateMutability": "view",
      "type": "function"
    }
  ],
  "bytecode": "0x6060604052341561000f57600080fd5b6101268061001e6000396000f3006060604052600436106053576000357c0100000000000000000000000000000000000000000000000000000000900463ffffffff168063209652551460585780635524107714607e5780638381f58a1460b2575b600080fd5b3415606257600080fd5b606860d8565b6040518082815260200191505060405180910390f35b3415608857600080fd5b609c600480803590602001909190505060e1565b6040518082815260200191505060405180910390f35b341560bc57600080fd5b60c260f4565b6040518082815260200191505060405180910390f35b60008054905090565b6000816000819055506000549050919050565b600054815600a165627a7a72305820238b5b31f7d952baf1350c6ed1a56d6218e34383694d9319167d614c4aa15f670029",
  "source": "pragma solidity ^0.4.17;\n\ncontract Sample {\n\nuint public number;\n\n// Set value\nfunction setValue(uint value) public returns (uint) {\n  number=value;\n  return number;\n}\n\n// Get value\nfunction getValue() public returns (uint) {\n  return number;\n}\n\n\n}\n",
  "sourcePath": "D:\\workspaces\\bockchain\\Sample\\contracts\\Sample.sol",
  "compiler": {
    "name": "solc",
    "version": "0.4.18+commit.9cf6e910.Emscripten.clang"
  },
  "schemaVersion": "1.0.1",
  "updatedAt": "2018-03-09T13:36:54.130Z"
}